:102000009031022820009731ED2F08000800700859
:10201000F5001128750886008701710881000130DC
:10202000F5070130F3020030F43B730A031D1C284E
:10203000740A031D1C281D280A280800803020006F
:102040004B06031D242825288328C030A9007828A2
:102050008F30A7009830A8001230AA000030AB00E3
:1020600083284D08F000F101F035F10DB330700711
:1020700084001830713D80388500003FA700013F83
:10208000A80002302707840028080318013E8500B5
:102090000008AA0003302707840028080318013E1F
:1020A00085000008AB00832803304D02031859282F
:1020B0005A2876284D08F000F101F035F10DA930CD
:1020C000700784001830713D80388500003FA700FC
:1020D000013FA80027088400280885000008F000B8
:1020E000F1017008AA007108AB008328A9018328B8
:1020F0004E08013A03192828033A03193128013AF6
:1021000003195428762808002000A9179930F900EF
:10211000FA01790886000E30870081010130F90745
:102120000130FA077A080319962897288928B030D1
:10213000F0000030F100F2002030F3000030F40035
:102140009031072090313D000E17FB017B082E3E99
:102150008600870181017B082C3E86008701810172
:102160000130FB0702307B02031CB728B828A628E1
:102170005830F0000030F100F2000130F300003080
:10218000F4009031072090313D000E13B83020004C
:10219000B000B030C4004408C3004D08D90059084D
:1021A000031DD328D428D7281030CA00E9280130CD
:1021B000DA000030DB005930DC000030DD00013097
:1021C000DE000030DF009D31F3259031203020000B
:1021D000CA00080020004B0E890C0339003A03198D
:1021E000F228F3282D295029A9170830CA005029B0
:1021F00090311E2090315029903184209031502907
:102200005930A7000030A80029140130AA00A917EE
:1022100050299E3184269031502994315124903197
:1022200050294F08583EA7000030A8000429A917DC
:102230004F08583E860087014D0881005029023022
:10224000DA000030DB000030DC00DD000030DE00B2
:10225000DF009D31F325903150294C08003A0319D5
:102260000929013A03190D29023A03190D29063AE1
:102270000319F428033A0319F828013A03191F290E
:102280000F3A03190029013A0319FC28033A0319EC
:102290001129013A03191729073A0319502950291E
:1022A00008002000300886008701010E890C890C87
:1022B0000139F6000430B00608304A06031D6129D2
:1022C000622971294D083D009600160803196929F5
:1022D0006A296E2910302000CA00712904302000BC
:1022E000CA004103031D75297629A929D030F200BF
:1022F0000030F300FF307205F4007F307305F50005
:102300003008023E860087017408C03F7508C13F4F
:102310009F3123279131023020004206031D91296D
:102320009229982930088600870184308100BF29CE
:102330007608031D9C299D29A32930088600870162
:10234000C8308100BF2930088600870188308100AD
:10235000BF29A21FAC29AD29BE29250826040319CF
:10236000B229B329BC290530203E86008701413FB0
:102370008A00403F0A0091312000A213C1010800E9
:102380002D302000BD005708FD39031DC829C9297B
:10239000282A5708E0000130E036890BCC29600874
:1023A0003F39E1000230E135890BD3296108B03EA5
:1023B000C4004408C3000430C306440886008701F3
:1023C000010C890C0F390D3A031DE729E829242A4D
:1023D000E40164084B3E860087010030873D4408D5
:1023E000023E84008501003FE000013FE1006008FB
:1023F000840061088500000881004408023E8600D0
:1024000087010130810741310318810A0130E40757
:1024100008306402031C0D2A0E2AE9294B30E00023
:102420000030E100FF306005E2007F306105E3002D
:102430004408023E860087016208C03F6308C13F2E
:102440009D3186259131342A9D3156259131342A8A
:10245000FD305705E00004306006031D302A312AA4
:10246000342A913151219131080020004B081F3945
:10247000013A03193C2A3D2A3E2AB02A4F08031983
:10248000422A432A442AB02A06304C06031D492A10
:102490004A2A6F2A642A5903031D4F2A502A6F2A99
:1024A0005330A7009830A8000930AA000030AB00D4
:1024B000C030A9006F2A0030A7009830A800413032
:1024C000AA000030AB00582A4E08213A03194B2AC3
:1024D000033A03195B2A013A03196F2A6F2A4B0E3C
:1024E000890C0339013A0319762A772A9C2AB02AE3
:1024F0009C3182249231B02A5630A7000030A800C7
:102500000130AA000030AB00C130A900B02A8030F1
:10251000A9004E08D600B02A5530A7000030A80008
:102520000130AA000030AB008130A900B02A803011
:10253000A9004D08D500B02A4C08013A0319B02A69
:10254000033A03197C2A013A03198C2A0A3A03191F
:10255000782A033A0319872A013A0319972AB02ADD
:1025600008003D000E122000A91BB72AB82AEC2A49
:10257000A21FBB2ABC2ACA2A0230C1003808031D88
:10258000C22AC32AC62A9E31D32692312000BA011C
:10259000BB012C2B430A86008701083081004B3099
:1025A000F5000030F600FF307505F7007F30760546
:1025B000F8004308023E860087017708C03F78088C
:1025C000C13F4308860087018C30810030088600B7
:1025D0008701843081002C2BCB1FEF2AF02A062B99
:1025E0000130C1003908031DF62AF72AFA2A9E3164
:1025F000D32692312000BA01BB013C08031D012BF8
:10260000022B2C2B9F31802792312C2B0230C100C2
:10261000430A86008701083081004B30F500003006
:10262000F600FF307505F7007F307605F8004308A7
:10263000023E860087017708C03F7808C13F430803
:102640008600870184308100BA01BB013C08031D6C
:102650002A2B2B2B2C2B022B0800210012113D00C2
:102660009301900198019930F400F50174088600F7
:102670000E30870081010130F4070130F50775083D
:102680000319432B442B362B16303D0091009F300D
:1026900097007B309200F6017608F0000230F035AA
:1026A000890B4F2B7008B03E860087010030C03F79
:1026B0000030C13FC23FC33F0130F6070830760209
:1026C000031C632B642B4C2B3D000E1796010E123E
:1026D0000E13712BF73090052000A901A201A30170
:1026E000A4013D009019752B762B6A2B0130200038
:1026F000BB000130BA00B901B801C801F601760883
:10270000303E8600870181017608323E86008701CF
:10271000810176082E3E86008701810176082C3ED5
:102720008600870181010130F60702307602031C22
:102730009A2B9B2B7F2BB8302000B00016303D0029
:1027400098004B30F0000030F100FF307005F200CF
:102750007F307105F30072082100B2007308B300E6
:102760000830B1008430B0002000D901CA0108004F
:102770002000440A860087010108F9007908F40066
:10278000F50175082402031DC72B740823020318E2
:10279000CA2BCB2BCD2B2308F90079082302A300E9
:1027A0000030243BA400F801E52B20088600210816
:1027B00087007808D03E8400850100088100013040
:1027C000A0070030A13D0130F80779087802031C0A
:1027D000EA2BEB2BD52B230824040319F02BF12B28
:1027E0001B2C430A8600870108308100D030F4009A
:1027F0000030F500FF307405F6007F307505F700F6
:102800004308023E860087017608C03F7708C13F33
:10281000440886008701011B0E2C0F2C152C430841
:1028200086008701C8308100502C4308860087014C
:1028300088308100502C430A8600870108308100CF
:102840004B30F4000030F500FF307405F6007F30A7
:102850007505F7004308023E860087017608C03FF1
:102860007708C13F4308860087018430810025082E
:10287000260403193C2C3D2C462C0530203E8600B6
:102880008701413F8A00403F0A0094312000A21393
:102890003C08031D4C2C4D2C502C9F31802793312C
:1028A000080020004D03031D562C572C692C4B08A3
:1028B0001F39003A031D5D2C5E2C692CA9170330CB
:1028C0004C06031D642C652C682C0130C900692C52
:1028D000C9014D08031D6D2C6E2C542D4B081F395A
:1028E000023A031D742C752C542D4F080F39003AF1
:1028F00003197B2C7C2C542D4F080F39F900023022
:1029000079020318842C852C542D20304A06031D8F
:102910008A2C8B2C542DA917CF1B8F2C902C9F2CDD
:102920004F080F39323E860087010108FC004F082E
:102930000F392C3E860087010108FB00AD2C4F08A3
:102940000F39303E860087010108FC004F080F391F
:102950002E3E860087010108FB007B18B02CB12CAD
:10296000B42CFB30FC05B52C7C15CF1BB82CB92C36
:10297000C12C4F080F39323E860087017C08810048
:10298000C82C4F080F39303E860087017C08810033
:1029900003304C06031DCD2CCE2CEC2C7C0886007D
:1029A0008701811FD42CD52CE62CCF1BD82CD92CF9
:1029B000E02C4F080F392C3E860087018114E62C4D
:1029C0004F080F392E3E8600870181147C0886004F
:1029D000870184308104542D0430FC067C08860075
:1029E0008701811FF42CF52C0D2D7C0886008701B2
:1029F0007F3081057C088600870101170530DA00E9
:102A00000030DB007C08DC00DD010130DE0000303E
:102A1000DF009D31F3259431112D7C08860087015C
:102A200001170430FC06FB18162D172D1E2D7C08EF
:102A300086008701811F1D2D1E2D442D2000CF1BD8
:102A4000222D232D2A2D4F080F392C3E8600870179
:102A50008110302D4F080F392E3E860087018110DE
:102A60007C08860087013B3081050530DA000030A4
:102A7000DB007C08DC00DD010130DE000030DF001F
:102A80009D31F3259431492D7C08860087013B3028
:102A9000810520004F080F39983EFA007A08860019
:102AA0000E308700FE308105080020004A08031D13
:102AB0005A2D5B2D6D2D3D008E0192011630910037
:102AC0009F3097007B309200662D8E158E1D692DEC
:102AD0006A2D652D01302000CA004A03031D712DA7
:102AE000722D7E2D3D008E1A762D772D7E2D900134
:102AF00092011214121602302000CA003D00101D6F
:102B0000822D832D8C2D121D862D872D8C2DFB3033
:102B100090059C316D2495313D008E1C902D912D9A
:102B2000942D20001211682E101C972D982DA52D84
:102B3000121C9B2D9C2DA52D93312D2395310430F6
:102B40002000CA00FE303D009005101EA82DA92DC2
:102B5000B32D121EAC2DAD2DB32D9C319824953183
:102B6000EF303D009005101FB62DB72DDD2D121F43
:102B7000BA2DBB2DCA2D73302000DA000030DB00E7
:102B80000030DC00DD000130DE000030DF009D3170
:102B9000F3259531BF303D00900520003D08031915
:102BA000D22DD32DD52D0130BD023D08031DD92DC9
:102BB000DA2DDD2D9F31802795313D00901EE12DCE
:102BC000E22DE92D921EE52DE62DE92D9D310825FA
:102BD00095313D00901CED2DEE2D032E921CF12D14
:102BE000F22D032EFF302000DA007F30DB000030B2
:102BF000DC00DD000130DE000030DF009D31F32518
:102C000095313D009301043020004A020318092E3B
:102C10000A2E0C2E1211682E3D00921D102E112E20
:102C2000662E2000E6013D00901D172E182E662E00
:102C30000F082000D700570CE500E50C650C0F3994
:102C4000BF00F7303D00900520005719282E292E8F
:102C5000382E3F082C3E8600870101080139E50027
:102C60000130E50601086506FE3965068100462E3D
:102C70003F082E3E8600870101080139E50001303A
:102C8000E50601086506FE39650681003F08031D5B
:102C90004A2E4B2E4F2E9131C02195315D2E723030
:102CA000DA000030DB005730DC000030DD0000309F
:102CB000DE00DF009D31F325953101302000E6076D
:102CC00004306602031C652E662E132E200012119E
:102CD000080008302000EB004608031D702E712EFE
:102CE000722EEC2FC60103108E1D03140030093D17
:102CF000DA0003108E1F03140030093DDB000310BF
:102D00000E1F03140030093DDC0003108D1F031457
:102D10000030093DDD0003100E1C03140030093D96
:102D2000DE0003108E1C03140030093DDF00031089
:102D30008D1E03140030093DE00003100D1F031425
:102D40000030093DE10003108E1E03140030093DE0
:102D5000E20003100C1E03140030093DE3000310D1
:102D60000D1E03140030093DE40003100E1E031471
:102D70000030093DE50003100E1D03140030093D2D
:102D8000E600EE016E085A3E86008701010803192D
:102D9000CA2ECB2EF42E6E08A03E86008701053089
:102DA00001020318D42ED52EDB2E6E08A03E86001D
:102DB0008701013081076E08A03E8600870105303B
:102DC0000106031DE42EE52E1C2F0130F800003013
:102DD000F9006E0AED2EF835F90D890BEB2E780807
:102DE000D3047908D4041C2F6E08A03E8600870106
:102DF00001080319FC2EFD2E032F6E08A03E86004D
:102E00008701013081026E08A03E8600870101081B
:102E1000031D0B2F0C2F1C2F0130F8000030F90080
:102E20006E0A142FF835F90D890B122FF809F909DC
:102E30007808D3057908D4050130EE070D306E020D
:102E4000031C232F242FC22E47080319282F292FB4
:102E5000362F470886008701010D010D0139F80062
:102E6000F9017808E7007908E800382FE701E80160
:102E70006708680403193D2F3E2F3F2FEC2F54089D
:102E8000F9005308F8000430F936F80C890B442F88
:102E900078082100E00020005408F9005308F800E9
:102EA000790E0F39F800F901780801392100E100A5
:102EB000200053185C2F5E2F01305F2F0030E90097
:102EC000D318632F652F0130662F0030EC005319A3
:102ED0006A2F6C2F01306D2F0030EA00D319712F4B
:102EE000732F0130742F0030ED0069080319792F1A
:102EF0007A2F9B2F6A08031D7E2F7F2F9B2F6C0834
:102F00000319832F842F8C2F6D08031D882F892F81
:102F10008C2F0130EB00DB2F6D080319902F912FC0
:102F2000992F6C08031D952F962F992F0730EB00D2
:102F3000DB2FEB01DB2F6A0803199F2FA02FC22F75
:102F40006908031DA42FA52FC22F6C080319A92FF0
:102F5000AA2FB22F6D08031DAE2FAF2FB22F033053
:102F6000EB00DB2F6D080319B62FB72FBF2F6C08AE
:102F7000031DBB2FBC2FBF2F0530EB00DB2F043010
:102F8000EB00DB2F6C080319C62FC72FCF2F6D085E
:102F9000031DCB2FCC2FCF2F0230EB00DB2F6D0882
:102FA0000319D32FD42FDB2F6C08031DD82FD92F53
:102FB000DB2F0630EB006B082100E200F001F00A85
:102FC000E030F1000030F2000330F30001309E31B8
:102FD000392696312000C7000800203084000030D8
:102FE00085003A309C3124249731A0308400003091
:102FF000850043309C312424973120009C313D2CA6
:103000000534013409340534A1340134053409345C
:103010001934013429340934153400342534013489
:1030200075340134953409348134023475340134F3
:103030009534073481340334053401340934393488
:103040001534003425340734753404349534013490
:10305000813442347534043495340134813403347A
:1030600006340034FF340934013415340034263476
:10307000FF3400347534083495340834B1340234E4
:10308000C0340934023422340034013401340034B1
:1030900080343234093404340034003401340334CD
:1030A0000034003400340934213411340134003444
:1030B000013422344134003407340534813403347C
:1030C0000834003401341A34033453340034773470
:1030D0000034613400346E340034533400346F34BF
:1030E00000346E34003467340034203400345534F6
:1030F0000034533400344234003412340334533433
:10310000003477340034613400346E340034533486
:1031100000346F3400346E340034673400341234B9
:103120000134003402340034003400340834D8341C
:1031300004345E3400340134003401340234003489
:1031400001345334533455345034013442344C3404
:10315000A534AF3498347D349834633498340434CF
:0A3160000334093404344134983478
:10383C0008000800923135229C3108006400800198
:10384C000131890B252C00341A30F60001309C31E3
:10385C00C9249C31080001302000C600023045020A
:10386C00031C392C3A2C3C2C0130C50208009C312D
:10387C0049249C31953155259C319C31AE249C3189
:10388C00402C9031022823008C018D018E012100E7
:10389C009801FC309900903027009B009D312A251F
:1038AC009C3193312D239C310800200036083704BD
:1038BC00031D612C622C662C1030B6002730B7002B
:1038CC000130B6020030B73B3D000E080800200066
:1038DC00C8017430DA000030DB000030DC00DD00A1
:1038EC000030DE00DF009D31F3259C313D008E1051
:1038FC001211FB30900508000830200051065204CC
:10390C00031D892C8A2C972CD830A0000030A100E4
:10391C000830A3000030A400E730A5001C30A6003E
:10392C00A21708003D001215EF3090058E140130DF
:10393C002000C8007530DA000030DB000030DC00FD
:10394C00DD000030DE00DF009D31F3259C310800E6
:10395C009C315B249C3120004503031DB62CB72CF5
:10396C00B82C0100203020004A02031CBE2CBF2CB6
:10397C00C82C3D008E1CC32CC42CC52CC82C9631D5
:10398C0069269C310800F800761DCD2CCE2CD32C4A
:10399C00F00178089D31BB259C31F61CD62CD72C18
:1039AC00DD2CF001F00A78089D31BB259C3178089C
:1039BC00983EF700770886000E3087007608810065
:1039CC000800F1017108A13E840098300318013EF3
:1039DC0085000008F0007108D83E860087010108B8
:1039EC0070060319FA2CFB2CFC2C072D0130F10767
:1039FC0008307102031C032D042DE82C1930200013
:103A0C00C50008003D00181C0C2D0D2D272D200085
:103A1C0044088600870180300106031D162D172DE2
:103A2C00252D30088600870184300106031D1F2DCB
:103A3C00202D252D4408860087018C3081003D0007
:103A4C001810DF309005080001302000EF00013025
:103A5C002100E3000C16F0308D04FF308E002400A2
:103A6C000C16F0308D0421009513F0017008A03E67
:103A7C008600870181010130F0070D307002031CB4
:103A8C00482D492D3C2D2000D301D401C601C50180
:103A9C002100E001E1010830E2002000C70108002C
:103AAC00023020004106031D5C2D5D2D612D9331EC
:103ABC00B8239D31852DC1013E08031D662D672D50
:103ACC00842D430A86008701083081004B30FA00B0
:103ADC000030FB00FF307A05FC007F307B05FD00D9
:103AEC004308023E860087017C08C03F7D08C13F29
:103AFC004308860087018C308100852DBE010800AB
:103B0C002000C201BC01B901B801BE01C1013008DD
:103B1C00860087017F3081050430B00630088600AE
:103B2C0087017F3081050430B00643088600870189
:103B3C007F308105A901AA01AB01A201A301A40157
:103B4C009031EA209D3103302000DA000030DB0098
:103B5C000030DC00DD000030DE00DF009D31F3259D
:103B6C009D319231B1229D310800F400B030F50046
:103B7C007008F1000130F135890BC12D7408F20089
:103B8C000230F235890BC72D72087107F300023031
:103B9C00F335890BCE2D7308F50775088600870160
:103BAC0081137008031DDB2DDC2DE32D7408323ED0
:103BBC008600870175088100E92D7408303E860067
:103BCC008701750881007508860087010113750847
:103BDC00043E8600870101170800102E9C31312409
:103BEC009D31382E903105209D31382E9031062094
:103BFC009D31382E9C312A249D31382E9C311F2426
:103C0C009D31382E9C3120249D31382E9C311E2420
:103C1C009D31382E20005B08003A0319192E7F3A8B
:103C2C000319332E382E5A08013A0319002E033A81
:103C3C000319042E013A0319082E063A0319382EDB
:103C4C00773A0319382E013A0319F42D073A031960
:103C5C00FC2D013A0319F82D382E5A08FF3A031996
:103C6C000C2E382E0800F600700803193E2E3F2E3D
:103C7C00462E7608303E860087010108F7004C2E50
:103C8C007608323E860087010108F7007708031D8D
:103C9C00502E512E532E0030832EFF307105F40020
:103CAC007F307205F5007708023E860087017408A4
:103CBC00C03F7508C13F770A8600870173088100F1
:103CCC0077088600870140308105770886008701D8
:103CDC008830810470080319742E752E7C2E76089A
:103CEC00303E8600870104308106822E7608323EF3
:103CFC008600870104308106770808002100D00176
:103D0C00D101B92EA9174903031D8D2E8E2EC62E57
:103D1C002100D014C62EA917C62EA917CF1B972E7B
:103D2C00982EA02E4F080F39323E860087010108CD
:103D3C00F000A72E4F080F39303E8600870101088E
:103D4C00F000700886008701811FAD2EAE2EC62EA6
:103D5C00700886008701011DB42EB52EC62E0130C9
:103D6C002100D000C62E20004B081F39003A031941
:103D7C00882E013A0319912E033A0319932EC62E5D
:103D8C002000A91FCA2ECB2ED22ED030A700003077
:103D9C00A80029140230AA0008002000B901B801BB
:103DAC0002304106031DDB2EDC2EF92E430A860061
:103DBC00870108308100D030F1000030F200FF3074
:103DCC007105F3007F307205F4004308023E860053
:103DDC0087017308C03F7408C13F43088600870100
:103DEC00C8308100222F2B085202031DFF2E2A08F7
:103DFC0051020318022F032F072F5208AB00510852
:103E0C00AA009F3123279E31D030F1000030F20000
:103E1C00FF307105F3007F307205F400200030088C
:103E2C00023E860087017308C03F7408C13F30080A
:103E3C0086008701C830810008000830F00000308F
:103E4C0020002B02083003192A0203182E2F2F2FC3
:103E5C00402F2A08F0004208031D352F362F392F2A
:103E6C000130C200402F4203031D3D2F3E2F402F37
:103E7C000230C20070082A02AA0000302B3BAB00B3
:103E8C00300A8600870170088100D030C0002918E4
:103E9C00502F512F7A2F632F400886008701270857
:103EAC00840028088500000881000130A707003035
:103EBC00A83D0130C0070130F0027008031D672FC8
:103ECC00682F522F7F2F4008860087012708840017
:103EDC0028088500000881000130A7070030A83DA4
:103EEC000130C0070130F0027008031D7E2F7F2FB8
:103EFC00692F080020003B08031D852F862FDF2F1C
:103F0C000130BB003A08031D8C2F8D2FDF2F0130A1
:103F1C00BA0002304106031D942F952F9F2F300AB3
:103F2C00860087018101300886008701C830810036
:103F3C00DF2F4103031DA32FA42FDF2FBE01440A43
:103F4C0086008701083081004B30F0000030F10012
:103F5C00FF307005F2007F307105F3004408023E1B
:103F6C00860087017208C03F7308C13F4408860071
:103F7C008701843081000130BE00430A860087012E
:103F8C00083081004B30F0000030F100FF3070053C
:103F9C00F2007F307105F3004308023E8600870172
:103FAC007208C03F7308C13F430886008701803008
:043FBC008100080078
:00000001FF
