:10000000803102288731ED2F080001302000C50023
:100010000800F400B030F5007008F1000130F1354F
:10002000890B0F287408F2000230F235890B15286D
:1000300072087107F3000230F335890B1C2873082E
:10004000F50775088600870181137008031D2928AC
:100050002A2831287408323E8600870175088100FD
:1000600037287408303E86008701750881007508BE
:100070008600870101137508043E86008701011779
:10008000080020003B08031D46284728A02801300F
:10009000BB003A08031D4D284E28A0280130BA00A5
:1000A00002304106031D552856286028300A860074
:1000B00087018101300886008701C8308100A028AF
:1000C0004103031D64286528A028BE01440A860058
:1000D0008701083081004A30F0000030F100FF3025
:1000E0007005F2007F307105F3004408023E86007F
:1000F00087017208C03F7308C13F4408860087012A
:10010000843081000130BE00430A86008701083038
:1001100081004A30F0000030F100FF307005F2003D
:100120007F307105F3004308023E860087017208A4
:10013000C03F7308C13F43088600870180308100BB
:100140000800803020004A06031DA728A828062999
:10015000C030A900FB287F30A7009030A8001230E3
:10016000AA000030AB0006294C08F000F101F03580
:10017000F10D9B30700784001030713D8038850090
:10018000003FA700013FA80002302707840028088D
:100190000318013E85000008AA00033027078400E9
:1001A00028080318013E85000008AB00062903302B
:1001B0004C020318DC28DD28F9284C08F000F10176
:1001C000F035F10D9130700784001030713D8038AA
:1001D0008500003FA700013FA800270884002808E9
:1001E00085000008F000F1017008AA007108AB005A
:1001F0000629A90106294D08013A0319AB28033A3B
:100200000319B428013A0319D728F9280800200057
:10021000A9179930F900FA01790886000E30870095
:1002200081010130F9070130FA077A080319192909
:100230001A290C29B030F0000030F100F200203013
:10024000F3000030F4008D312D2581313D000E1773
:10025000FB017B082E3E8600870181017B082C3E36
:100260008600870181010130FB0702307B02031CFD
:100270003A293B2929295730F0000030F100F200DB
:100280000130F3000030F4008D312D2581313D0027
:100290000E13B8302000B000B030C4004408C300D2
:1002A0004C08D8005808031D562957295A291030E0
:1002B000C9006C290130D9000030DA005830DB0069
:1002C0000030DC000130DD000030DE008E3114260D
:1002D000813120302000C900080020004A0E890C1E
:1002E0000339003A031975297629B029D329A917AA
:1002F0000830C900D3298031A1208131D32981312F
:1003000007218131D3295830A7000030A8002914D3
:100310000130AA00A917D3298E31A5268131D3290E
:10032000843151248131D3294E08573EA700003033
:10033000A8008729A9174E08573E860087014C0858
:100340008100D3290230D9000030DA000030DB0010
:10035000DC000030DD00DE008E3114268131D3292F
:100360004B08003A03198C29013A03199029023AE3
:1003700003199029063A03197729033A03197B29AF
:10038000013A0319A2290F3A03198329013A0319E3
:100390007F29033A03199429013A03199A29073A44
:1003A0000319D329D32908002D302000BD00560899
:1003B000FD39031DDC29DD293C2A5608DF00013008
:1003C000DF36890BE0295F083F39E0000230E03575
:1003D000890BE7296008B03EC4004408C30004301C
:1003E000C306440886008701010C890C0F390D3AB9
:1003F000031DFB29FC29382AE30163084A3E8600D5
:1004000087010030873D4408023E84008501003F9B
:10041000DF00013FE0005F088400600885000008FD
:1004200081004408023E8600870101308107413186
:100430000318810A0130E30708306302031C212AF4
:10044000222AFD294A30DF000030E000FF305F053E
:10045000E1007F306005E2004408023E860087012B
:100460006108C03F6208C13F8D31DF258131482AD4
:100470008D31AF258131482AFD305605DF0004302B
:100480005F06031D442A452A482A8F31A12781315E
:10049000080020004A081F39013A0319502A512A3E
:1004A000522AC02A4E080319562A572A582AC02A07
:1004B00006304B06031D5D2A5E2A832A782A5803DC
:1004C000031D632A642A832A4330A7009030A800C2
:1004D0000930AA000030AB00C030A900832A0030E8
:1004E000A7009030A8003130AA000030AB006C2A81
:1004F0004D08213A03195F2A033A03196F2A013A7A
:100500000319832A832A4A0E890C0339013A0319F5
:100510008A2A8B2AAC2AC02A5530A7000030A800AE
:100520000130AA000030AB00C130A900C02A8030E1
:10053000A9004D08D500C02A5430A7000030A800FB
:100540000130AA000030AB008130A900C02A803001
:10055000A9004C08D400C02A4B08013A0319C02A4C
:10056000033A03198C2A013A03199C2A0A3A0319FF
:10057000C02A033A0319972A013A0319A72AC02A65
:1005800008003D000E122000A91BC72AC82AFC2A19
:10059000A21FCB2ACC2ADA2A0230C1003808031D58
:1005A000D22AD32AD62A8E31F42682312000BA01EB
:1005B000BB013C2B430A86008701083081004A308A
:1005C000F5000030F600FF307505F7007F30760546
:1005D000F8004308023E860087017708C03F78088C
:1005E000C13F4308860087018C30810030088600B7
:1005F0008701843081003C2BCA1FFF2A002B162B59
:100600000130C1003908031D062B072B0A2B8E3140
:10061000F42682312000BA01BB013C08031D112BD6
:10062000122B3C2B8031412082313C2B0230C10007
:10063000430A86008701083081004A30F500003007
:10064000F600FF307505F7007F307605F8004308A7
:10065000023E860087017708C03F7808C13F430803
:100660008600870184308100BA01BB013C08031D6C
:100670003A2B3B2B3C2B122B08002000440A86000F
:1006800087010108F9007908F400F50175082402D2
:10069000031D4C2B7408230203184F2B502B522B95
:1006A0002308F90079082302A3000030243BA400AA
:1006B000F8016A2B20088600210887007808D03EC0
:1006C00084008501000881000130A0070030A13DB1
:1006D0000130F80779087802031C6F2B702B5A2B16
:1006E000230824040319752B762BA02B430A8600BC
:1006F000870108308100D030F4000030F500FF3071
:100700007405F6007F307505F7004308023E860049
:1007100087017608C03F7708C13F440886008701FB
:10072000011B932B942B9A2B430886008701C8301A
:100730008100C52B43088600870188308100C52BC6
:10074000430A86008701083081004A30F4000030F7
:10075000F500FF307405F6007F307505F70043089B
:10076000023E860087017608C03F7708C13F4308F4
:100770008600870184308100A2133C08031DC12B31
:10078000C22BC52B8031412083310800210012117A
:100790003D009301900198019930F400F50174082F
:1007A00086000E30870081010130F4070130F50723
:1007B00075080319DC2BDD2BCF2B16303D00910083
:1007C0009F3097007B309200F6017608F0000230EF
:1007D000F035890BE82B7008B03E860087010030A9
:1007E000C03F0030C13FC23FC33F0130F607083071
:1007F0007602031CFC2BFD2BE52B3D000E1796010A
:100800000E120E130A2CF73090052000A901A20148
:10081000A301A4013D0090190E2C0F2C032C0130D4
:100820002000BB000130BA00B901B801C701F601D0
:100830007608303E8600870181017608323E8600C8
:100840008701810176082E3E8600870181017608A6
:100850002C3E8600870181010130F60702307602C6
:10086000031C332C342C182CB8302000B000163068
:100870003D0098004A30F0000030F100FF30700574
:10088000F2007F307105F30072082100B200730896
:10089000B3000830B1008430B0002000D801C90195
:1008A000080020004C03031D562C572C692C4A08C5
:1008B0001F39003A031D5D2C5E2C692CA9170330EB
:1008C0004B06031D642C652C682C0130C800692C74
:1008D000C8014C08031D6D2C6E2C542D4A081F397D
:1008E000023A031D742C752C542D4E080F39003A12
:1008F00003197B2C7C2C542D4E080F39F900023043
:1009000079020318842C852C542D20304906031DB0
:100910008A2C8B2C542DA917CE1B8F2C902C9F2CFE
:100920004E080F39323E860087010108FC004E0850
:100930000F392C3E860087010108FB00AD2C4E08C4
:100940000F39303E860087010108FC004E080F3940
:100950002E3E860087010108FB007B18B02CB12CCD
:10096000B42CFB30FC05B52C7C15CE1BB82CB92C57
:10097000C12C4E080F39323E860087017C08810069
:10098000C82C4E080F39303E860087017C08810054
:1009900003304B06031DCD2CCE2CEC2C7C0886009E
:1009A0008701811FD42CD52CE62CCE1BD82CD92C1A
:1009B000E02C4E080F392C3E860087018114E62C6E
:1009C0004E080F392E3E8600870181147C08860070
:1009D000870184308104542D0430FC067C08860095
:1009E0008701811FF42CF52C0D2D7C0886008701D2
:1009F0007F3081057C088600870101170530D9000A
:100A00000030DA007C08DB00DC010130DD00003062
:100A1000DE008E3114268431112D7C08860087017A
:100A200001170430FC06FB18162D172D1E2D7C080F
:100A300086008701811F1D2D1E2D442D2000CE1BF9
:100A4000222D232D2A2D4E080F392C3E860087019A
:100A50008110302D4E080F392E3E860087018110FF
:100A60007C08860087013B3081050530D9000030C5
:100A7000DA007C08DB00DC010130DD000030DE0044
:100A80008E3114268431492D7C08860087013B3045
:100A9000810520004E080F39983EFA007A0886003A
:100AA0000E308700FE308105080020004908031D34
:100AB0005A2D5B2D6D2D3D008E0192011630910057
:100AC0009F3097007B309200662D8E158E1D692D0C
:100AD0006A2D652D01302000C9004903031D712DC9
:100AE000722D7E2D3D008E1A762D772D7E2D900154
:100AF00092011214121602302000C9003D00101D90
:100B0000822D832D8C2D121D862D872D8C2DFB3053
:100B100090058D31022585313D008E1C902D912D43
:100B2000942D20001211682E101C972D982DA52DA4
:100B3000121C9B2D9C2DA52D8331C623853104309D
:100B40002000C900FE303D009005101EA82DA92DE3
:100B5000B32D121EAC2DAD2DB32D8D311725853142
:100B6000EF303D009005101FB62DB72DDD2D121F63
:100B7000BA2DBB2DCA2D73302000D9000030DA0009
:100B80000030DB00DC000130DD000030DE008E31A3
:100B900014268531BF303D00900520003D08031923
:100BA000D22DD32DD52D0130BD023D08031DD92DE9
:100BB000DA2DDD2D8031412085313D00901EE12D63
:100BC000E22DE92D921EE52DE62DE92D8D316225D0
:100BD00085313D00901CED2DEE2D032E921CF12D44
:100BE000F22D032EFF302000D9007F30DA000030D4
:100BF000DB00DC000130DD000030DE008E31142629
:100C000085313D0093010430200049020318092E6C
:100C10000A2E0C2E1211682E3D00921D102E112E40
:100C2000662E2000E5013D00901D172E182E662E21
:100C30000F082000D600560CE400E40C640C0F39B9
:100C4000BF00F7303D00900520005619282E292EB0
:100C5000382E3F082C3E8600870101080139E40048
:100C60000130E40601086406FE3964068100462E60
:100C70003F082E3E8600870101080139E40001305B
:100C8000E40601086406FE39640681003F08031D7E
:100C90004A2E4B2E4F2E8131D42185315D2E72305C
:100CA000D9000030DA005630DB000030DC000030C4
:100CB000DD00DE008E311426853101302000E5078D
:100CC00004306502031C652E662E132E20001211BF
:100CD000080008302000EA004508031D702E712E20
:100CE000722EEC2FC50103108E1D03140030093D38
:100CF000D90003108E1F03140030093DDA000310E1
:100D00000E1F03140030093DDB0003108D1F031478
:100D10000030093DDC0003100E1C03140030093DB7
:100D2000DD0003108E1C03140030093DDE000310AB
:100D30008D1E03140030093DDF0003100D1F031446
:100D40000030093DE00003108E1E03140030093D01
:100D5000E10003100C1E03140030093DE2000310F3
:100D60000D1E03140030093DE30003100E1E031492
:100D70000030093DE40003100E1D03140030093D4E
:100D8000E500ED016D08593E860087010108031951
:100D9000CA2ECB2EF42E6D08A03E860087010530AA
:100DA00001020318D42ED52EDB2E6D08A03E86003E
:100DB0008701013081076D08A03E8600870105305C
:100DC0000106031DE42EE52E1C2F0130F800003033
:100DD000F9006D0AED2EF835F90D890BEB2E780828
:100DE000D2047908D3041C2F6D08A03E8600870129
:100DF00001080319FC2EFD2E032F6D08A03E86006E
:100E00008701013081026D08A03E8600870101083C
:100E1000031D0B2F0C2F1C2F0130F8000030F900A0
:100E20006D0A142FF835F90D890B122FF809F909FD
:100E30007808D2057908D3050130ED070D306D0231
:100E4000031C232F242FC22E46080319282F292FD5
:100E5000362F460886008701010D010D0139F80083
:100E6000F9017808E6007908E700382FE601E70184
:100E70006608670403193D2F3E2F3F2FEC2F5308C0
:100E8000F9005208F8000430F936F80C890B442FA9
:100E900078082100D80020005308F9005208F80013
:100EA000790E0F39F800F901780801392100D900CD
:100EB000200052185C2F5E2F01305F2F0030E800B9
:100EC000D218632F652F0130662F0030EB005219C6
:100ED0006A2F6C2F01306D2F0030E900D219712F6D
:100EE000732F0130742F0030EC0068080319792F3C
:100EF0007A2F9B2F6908031D7E2F7F2F9B2F6B0856
:100F00000319832F842F8C2F6C08031D882F892FA2
:100F10008C2F0130EA00DB2F6C080319902F912FE2
:100F2000992F6B08031D952F962F992F0730EA00F4
:100F3000DB2FEA01DB2F690803199F2FA02FC22F97
:100F40006808031DA42FA52FC22F6B080319A92F12
:100F5000AA2FB22F6C08031DAE2FAF2FB22F033074
:100F6000EA00DB2F6C080319B62FB72FBF2F6B08D1
:100F7000031DBB2FBC2FBF2F0530EA00DB2F043031
:100F8000EA00DB2F6B080319C62FC72FCF2F6C0881
:100F9000031DCB2FCC2FCF2F0230EA00DB2F6C08A4
:100FA0000319D32FD42FDB2F6B08031DD82FD92F74
:100FB000DB2F0630EA006A082100DA00F001F00AAF
:100FC000D830F1000030F2000330F30001308E31F0
:100FD0005A2686312000C6000800203084000030E8
:100FE000850039308C31B1248731A0308400003045
:100FF00085003B308C31B124873120008C31BE2CF0
:10195400080008000800823149228C310800640024
:1019640080010131890BB22C00341A30F6000130A9
:101974008D3144258C3108008C31CA248C31853159
:1019840055258C318C31EE248C31C12C80310228C8
:1019940023008C018D018E0121009801FC309900F7
:1019A400903027009B008D3184258C318331C623F0
:1019B4008C310800200036083704031DE22CE32C88
:1019C400E72C1030B6002730B7000130B6020030E3
:1019D400B73B3D000E0808008C31DC248C312030EC
:1019E40020004902031CF72CF82C012D3D008E1C0D
:1019F400FC2CFD2CFE2C012D863169268C3108002F
:101A04002000C7017430D9000030DA000030DB0058
:101A1400DC000030DD00DE008E3114268D313D0007
:101A24008E101211FB30900508003D001215EF30A6
:101A340090058E1401302000C7007530D9000030A5
:101A4400DA000030DB00DC000030DD00DE008E3127
:101A540014268D3108007008F500372D75088600AE
:101A64008701710881000130F5070130F30200306D
:101A7400F43B730A031D422D740A031D422D432DAA
:101A8400302D0800F800761D482D492D4E2DF0010B
:101A94007808803109208D31F61C512D522D582D96
:101AA400F001F00A7808803109208D317808983ED9
:101AB400F700770886000E3087007608810008005A
:101AC4003D00181C662D672D812D200044088600DA
:101AD400870180300106031D702D712D7F2D300884
:101AE4008600870184300106031D792D7A2D7F2D10
:101AF4004408860087018C3081003D001810DF30D7
:101B04009005080001302000EF000130EE002100B4
:101B14000C16F0308D04FF308E0024000C16F030CB
:101B24008D0421009513F0017008A03E8600870102
:101B340081010130F0070D307002031CA22DA32D8A
:101B4400962D2000D201D301C5012100D801D9016D
:101B54000830DA002000C6010800023020004106E7
:101B6400031DB52DB62DBA2D83313D238D31DE2DC8
:101B7400C1013E08031DBF2DC02DDD2D430A860083
:101B84008701083081004A30FA000030FB00FF3042
:101B94007A05FC007F307B05FD004308023E860089
:101BA40087017C08C03F7D08C13F43088600870148
:101BB4008C308100DE2DBE0108002000C201BC0172
:101BC400B901B801BE01C1013008860087017F3028
:101BD40081050430B0063008860087017F30810516
:101BE4000430B0064308860087017F308105A901CF
:101BF400AA01AB01A201A301A40181316D218D31A0
:101C040003302000D9000030DA000030DB00DC00B3
:101C14000030DD00DE008E3114268D318231C12288
:101C24008D310800312E803105208E31592E8C31B2
:101C3400AC248E31592E803104208E31592E8C31B2
:101C4400B7248E31592E8C31AB248E31592E8C31E0
:101C5400AD248E31592E8C31AA248E31592E200078
:101C64005A08003A03193A2E7F3A0319542E592E72
:101C74005908013A0319212E033A0319252E013A72
:101C84000319292E063A0319592E773A0319592EA6
:101C9400013A0319152E073A03191D2E013A0319A7
:101CA400192E592E5908FF3A03192D2E592E0800C2
:101CB400F600700803195F2E602E672E7608303EFA
:101CC400860087010108F7006D2E7608323E8600F3
:101CD40087010108F7007708031D712E722E742EF8
:101CE4000030A42EFF307105F4007F307205F5003A
:101CF4007708023E860087017408C03F7508C13F1B
:101D0400770A8600870173088100770886008701B7
:101D14004030810577088600870188308104700887
:101D24000319952E962E9D2E7608303E8600870147
:101D340004308106A32E7608323E860087010430E3
:101D44008106770808002100D001D101DA2EA917F5
:101D54004803031DAE2EAF2EE72E2100D014E72E2C
:101D6400A917E72EA917CE1BB82EB92EC12E4E08DF
:101D74000F39323E860087010108F000C82E4E0854
:101D84000F39303E860087010108F0007008860094
:101D94008701811FCE2ECF2EE72E70088600870183
:101DA400011DD52ED62EE72E01302100D000E72EBE
:101DB40020004A081F39003A0319A92E013A0319D1
:101DC400B22E033A0319B42EE72E2000A91FEB2EDE
:101DD400EC2EF32ED030A7000030A80029140230D6
:101DE400AA0008002000B901B80102304106031D11
:101DF400FC2EFD2E1A2F430A86008701083081002D
:101E0400D030F1000030F200FF307105F3007F3074
:101E14007205F4004308023E860087017308C03F40
:101E24007408C13F430886008701C8308100432FEE
:101E34002B085102031D202F2A0850020318232FB8
:101E4400242F282F5108AB005008AA008F314427B3
:101E54008E31D030F1000030F200FF307105F30014
:101E64007F307205F40020003008023E86008701AE
:101E74007308C03F7408C13F300886008701C8302A
:101E8400810008000830F000003020002B020830E8
:101E940003192A0203184F2F502F612F2A08F0002C
:101EA4004208031D562F572F5A2F0130C200612FAD
:101EB4004203031D5E2F5F2F612F0230C2007008A2
:101EC4002A02AA0000302B3BAB00300A86008701AF
:101ED40070088100D030C0002918712F722F9B2FF9
:101EE400842F40088600870127088400280885007D
:101EF400000881000130A7070030A83D0130C00769
:101F04000130F0027008031D882F892F732FA02F32
:101F140040088600870127088400280885000008F7
:101F240081000130A7070030A83D0130C00701300F
:101F3400F0027008031D9F2FA02F8A2F0800200095
:101F4400300886008701010E890C890C0139F500DF
:101F54000430B00608304906031DB12FB22FC12F3B
:101F64004C083D00960016080319B92FBA2FBE2F4E
:101F740010302000C900C12F04302000C9004103E3
:101F8400031DC52FC62FF92FD030F1000030F20009
:101F9400FF307105F3007F307205F4003008023E13
:101FA400860087017308C03F7408C13F8F314427FE
:101FB4008F31023020004206031DE12FE22FE82F6B
:101FC40030088600870184308100FF2F7508031DC7
:101FD400EC2FED2FF32F300886008701C8308100E5
:101FE400FF2F30088600870188308100FF2FA21F51
:101FF400FC2FFD2FFE2FA213C1010800053401346C
:1020040009340534A1340134053409341934013454
:102014002934093415340034253401347534013439
:1020240095340934813402347534013495340734D9
:10203400813403340534013409343934153400341B
:1020440025340734753404349534013481344234EE
:10205400753404349534013481340334C034093480
:1020640002342234003401340134003480343234F4
:1020740009340434003400340134033400340034AB
:10208400003409342134113401340034013422344D
:1020940031340034073405348134033408340034D3
:1020A40001341A3403345334003477340034613443
:1020B40000346E340034533400346F3400346E34DE
:1020C400003467340034203400345534003453343D
:1020D400003442340034123403345334003477343B
:1020E4000034613400346E340034533400346F34BB
:1020F40000346E3400346734003412340134003454
:1021040002340034003400340834D83404345E34E7
:10211400003401340034013402340034013497347F
:1021240090346D349034533490340434033409348B
:0621340004343134903444
:020000040001F9
:04000E00840FCF1F6D
:00000001FF
