:020000040000FA
:08000000803102288731D52F61
:10000A008F31882780310800023020003306031D13
:10001A000F28102814288131BF2180313828B301D4
:10002A002F08031D19281A283728350A8600870140
:10003A00083081003C30FA000030FB00FF307A05BE
:10004A00FC007F307B05FD003508023E86008701F3
:10005A007C08C03F7D08C13F3508860087018C3087
:10006A0081003828AF010800E030F0001F30F100AD
:10007A008931902180315330700629300319710675
:10008A00031D482849285928E130F0001F30F100A3
:10009A008931902180315A30700615300319710662
:1000AA000319582859285B280030B228E230F0009A
:1000BA001F30F10089319021803171082000D2006F
:1000CA007008D10010305202003003195102031C8B
:1000DA006F28702859281F305202E0300319510244
:1000EA00031C782879287A285928E430F0001F3030
:1000FA00F100893190218031FF307005F90000301C
:10010A007105FA007908FA00F901E330F0001F30AE
:10011A00F100893190218031FF307005FC000030F8
:10012A007105FD0079087C042000CF007A087D045F
:10013A00D0005208F8005108F7008B314123803172
:10014A00200050087806031DAC284F0877060319CB
:10015A00AF28B1280130B228003008003D000E1245
:10016A002000A21BB928BA28F1282100A21FBE2804
:10017A00BF28CE2802302000B3002908031DC62854
:10018A00C728CA288C31202480312000AB01AC0159
:10019A0031292000350A86008701083081003C3069
:1001AA00F5000030F600FF307505F7007F30760560
:1001BA00F8003508023E860087017708C03F7808B4
:1001CA00C13F3508860087018C30810025088600EA
:1001DA008701843081003129BC1FF428F5280B29B6
:1001EA000130B3002A08031DFB28FC28FF288C31A4
:1001FA00202480312000AB01AC012D08031D062903
:10020A00072931298D311F25803131290230B30068
:10021A00350A86008701083081003C30F50000303D
:10022A00F600FF307505F7007F307605F8003508CF
:10023A00023E860087017708C03F7808C13F35082B
:10024A008600870184308100AB01AC012D08031DB3
:10025A002F293029312907290800210012113D00D0
:10026A009301900198019930F400F5017408860011
:10027A000E30870081010130F4070130F507750857
:10028A000319482949293B2916303D0091009F301E
:10029A0097007B309200F6017608F0000230F035C4
:1002AA00890B54297008AE3E860087010030C03F92
:1002BA000030C13FC23FC33F0130F6070830760223
:1002CA00031C6829692951293D000E1796010E124F
:1002DA000E137729F73090052000A2012100A20110
:1002EA00A301A4013D0090197B297C296F290130C3
:1002FA002000AC000130AB00AA01A9012100AD0128
:10030A00F6017608253E8600870181017608273E98
:10031A008600870181017608A93E8600870181014E
:10032A007608A73E8600870181010130F607023070
:10033A007602031CA129A2298629B6302000A5002D
:10034A0016303D0098003C30F0000030F100FF30DC
:10035A007005F2007F307105F30072082100B000C9
:10036A007308B1000830AF008430AE002000C80125
:10037A00BB0108002000360A860087010108F9003F
:10038A007908F400F501750821002402031DCF291C
:10039A00740823020318D229D329D5292308F9007E
:1003AA0079082302A3000030243BA400F801ED29B8
:1003BA0020088600210887007808CE3E840085013F
:1003CA00000881000130A0070030A13D0130F80784
:1003DA0079087802031CF229F329DD292308240469
:1003EA000319F829F929242A2000350A86008701E9
:1003FA0008308100CE30F4000030F500FF3074057B
:10040A00F6007F307505F7003508023E8600870141
:10041A007608C03F7708C13F360886008701011B6E
:10042A00172A182A1E2A350886008701C830810033
:10043A004C2A350886008701883081004C2A200022
:10044A00350A86008701083081003C30F40000300C
:10045A00F500FF307405F6007F307505F7003508A2
:10046A00023E860087017608C03F7708C13F3508FB
:10047A0086008701843081002100A21320002D0804
:10048A00031D482A492A4C2A8D311F25813108002B
:10049A00103020005402003003195302031C562A5C
:1004AA00572A602A1F305402E03003195302031CF2
:1004BA005F2A602A622A0730DD2A5408F8005308A6
:1004CA00F7008B3141238231200056087806031D3C
:1004DA00702A550877060319732A742A752A602A1E
:1004EA00DB015B08A03E860001308700FF308100F7
:1004FA000130DB0740305B02031C842A852A762AF6
:10050A0053302300A0002930A1005A30A200153030
:10051A00A300200053082300A4002000540823004D
:10052A00A500200055082300A600A70120005608B0
:10053A002300A800A901200057082300AA00AB0144
:10054A00200058082300AC00AD01E030F4001F3051
:10055A00F5008C31702482312000DC005C0803191C
:10056A00B72AB82ABA2A5C08DD2AE030F4001F301C
:10057A00F500A030F60083319A2382312000DC0096
:10058A005C080319C92ACA2ACB2AB82A8031392019
:10059A008231003A031DD22AD32AD92A07302000F1
:1005AA00D9000030DA00DC2A2000D901DA01590822
:1005BA00080003102100161D03140030093D200015
:1005CA00E9002100161523008C018D018E012100FE
:1005DA009801FC30990020006908031DF52AF62AC3
:1005EA00092B8931A5218231003A031DFD2AFE2AF1
:1005FA00092B803139208231003A0319052B062B49
:10060A00092B89314D218231893167218231853126
:10061A0069258231203020003B02031C152B162B42
:10062A000C2B3D008E1C1A2B1B2B1C2B0C2B200079
:10063A003A080319212B222B742B3A080319262B6B
:10064A00272B342B3A0886008701010D010D013949
:10065A00E700E8016708EA006808EB00362BEA01C0
:10066A00EB016A086B04031D3B2B3C2B742B3908E6
:10067A000319402B412B4E2B390886008701010DA7
:10068A00010D0139E700E8016708EC006808ED0090
:10069A00502BEC01ED016C086D04031D552B562BF4
:1006AA00742B86317D268231F001F00A2030F10068
:1006BA000130F2004030F30001308B318623823161
:1006CA002000B900F0012030F1000230F200403081
:1006DA00F30001308B31862382312000BA003708BB
:1006EA000319782B792B0C2B390803197D2B7E2BB8
:1006FA008B2B390886008701010D010D0139E700AE
:10070A00E8016708EE006808EF008D2BEE01EF01A3
:10071A006E086F04031D922B932B0C2BB7018931A2
:10072A004D2182310C2B80310228103075020030A5
:10073A0003197402031CA22BA32BAC2B1F307502C6
:10074A00E13003197402031CAB2BAC2BAE2B033024
:10075A00642C1F307405F70000307505F80077081F
:10076A0078040319B92BBA2BBC2B0430642C0B0D5B
:10077A000B0D01392000C9008B1323001513151224
:10078A0015152000CC014C357607F700770A86004C
:10079A00013087000108F800F9017808F900F8012A
:1007AA004C08FB000130FB35890BD82B76087B07F8
:1007BA0086000130870078080104CA007908CB0056
:1007CA004C0874072300910020004C087407F700B6
:1007DA0075080318750AF800780823009200FF309C
:1007EA0020004A05F7003F304B05F8007708230040
:1007FA009300780894001F3020004C06031D062C35
:10080A00092C230095160B2C2300951289314421BB
:10081A00833101302000CC0720304C02031C162CF7
:10082A00172CC82B2300151195122000490C031C04
:10083A008B1303188B17CC014C357607F700770A10
:10084A008600013087000108F800F9017808F900EC
:10085A00F8014C08FB000130FB35890B312C760876
:10086A007B0786000130870078080104CA007908EE
:10087A00CB00FF304A05F7003F304B05F8004C0823
:10088A007407F00075080318750AF1008931902180
:10089A00833178087106031D542C770870060319F2
:1008AA00572C582C5A2C0630642C01302000CC07C7
:1008BA0020304C02031C622C632C212C00300800CF
:1008CA0020003E03031D6A2C6B2C7D2C3C081F392B
:1008DA00003A031D712C722C7D2CA21703303D06A1
:1008EA00031D782C792C7C2C0130B1007D2CB101B0
:1008FA003E08031D812C822C682D3C081F39023AC0
:10090A00031D882C892C682D40080F39003A0319D9
:10091A008F2C902C682D40080F39F900023079028B
:10092A000318982C992C682D20303B06031D9E2C09
:10093A009F2C682DA217C01BA32CA42CB32C4008F3
:10094A000F39273E860087010108FC0040080F394D
:10095A00A73E860087010108FB00C12C40080F3919
:10096A00253E860087010108FC0040080F39A93E90
:10097A00860087010108FB007B18C42CC52CC82CF3
:10098A00FB30FC05C92C7C15C01BCC2CCD2CD52CDE
:10099A0040080F39273E860087017C088100DC2C3D
:1009AA0040080F39253E860087017C088100033004
:1009BA003D06031DE12CE22C002D7C0886008701F0
:1009CA00811FE82CE92CFA2CC01BEC2CED2CF42C02
:1009DA0040080F39A73E860087018114FA2C400887
:1009EA000F39A93E8600870181147C088600870199
:1009FA0084308104682D0430FC067C088600870157
:100A0A00811F082D092D212D7C08860087017F3042
:100A1A0081057C088600870101170530C90000306E
:100A2A00CA007C08CB00CC010130CD000030CE00DA
:100A3A008931FE218431252D7C0886008701011722
:100A4A000430FC06FB182A2D2B2D322D7C0886003B
:100A5A008701811F312D322D582D2000C01B362DC4
:100A6A00372D3E2D40080F39A73E86008701811099
:100A7A00442D40080F39A93E8600870181107C0861
:100A8A00860087013B3081050530C9000030CA0065
:100A9A007C08CB00CC010130CD000030CE0089317A
:100AAA00FE2184315D2D7C08860087013B3081055B
:100ABA00200040080F39983EFA007A0886000E3066
:100ACA008700FE308105080020003B08031D6E2DBB
:100ADA006F2D812D3D008E019201163091009F30BD
:100AEA0097007B3092007A2D8E158E1D7D2D7E2DDE
:100AFA00792D01302000BB003B03031D852D862D77
:100B0A00922D3D008E1A8A2D8B2D922D90019201E5
:100B1A001214121602302000BB003D00101D962D43
:100B2A00972DA02D121D9A2D9B2DA02DFB309005DF
:100B3A008931BA2185313D008E1CA42DA52DA82D01
:100B4A00200012117C2E101CAB2DAC2DB92D121CBD
:100B5A00AF2DB02DB92D81313221853104302000DD
:100B6A00BB00FE303D009005101EBC2DBD2DC72DCB
:100B7A00121EC02DC12DC72D8931E7218531EF30D5
:100B8A003D009005101FCA2DCB2DF12D121FCE2D21
:100B9A00CF2DDE2D73302000C9000030CA0000308E
:100BAA00CB00CC000130CD000030CE008931FE21CF
:100BBA008531BF303D00900520002E080319E62D2F
:100BCA00E72DE92D0130AE022E08031DED2DEE2D85
:100BDA00F12D8D311F2585313D00901EF52DF62D05
:100BEA00FD2D921EF92DFA2DFD2D8A3152228531C5
:100BFA003D00901C012E022E172E921C052E062E49
:100C0A00172EFF302000C9007F30CA000030CB0009
:100C1A00CC000130CD000030CE008931FE21853173
:100C2A003D009301043020003B0203181D2E1E2EA6
:100C3A00202E12117C2E3D00921D242E252E7A2E56
:100C4A002000D5013D00901D2B2E2C2E7A2E0F0848
:100C5A002000C600460CD400D40C540C0F39B00046
:100C6A00F7303D009005200046193C2E3D2E4C2EB3
:100C7A003008A73E8600870101080139D4000130F7
:100C8A00D40601085406FE39540681005A2E30084B
:100C9A00A93E8600870101080139D4000130D40633
:100CAA0001085406FE39540681003008031D5E2EE1
:100CBA005F2E632E8F3113278531712E7230C90052
:100CCA000030CA004630CB000030CC000030CD00E6
:100CDA00CE008931FE21853101302000D50704304C
:100CEA005502031C792E7A2E272E20001211080095
:100CFA002000E2018A313422863153302400200652
:100D0A00031D882E892E8E2E210303198D2E8E2ED9
:100D1A00922E01302200A400D42F89315A21863123
:100D2A0071082000E6007008E500BB2F01302200A0
:100D3A00A500A6012030A700A8011030A900DF30C5
:100D4A00AA001F30AB00E030AC001F30AD0080318C
:100D5A00392086312200AE00D02F2000B801660863
:100D6A00F5006508F4008C31702486312000E20019
:100D7A00D02F26082000E300103066020030031945
:100D8A006502031CC92ECA2ED32E1F306602E0301C
:100D9A0003196502031CD22ED32ED62E0330E2008D
:100DAA00D02F1F306505DD0000306605DE005D08C6
:100DBA005E040319E12EE22EE52E0430E200D02F64
:100DCA0002306302031CEA2EEB2EEE2E0130E20003
:100DDA00D02F6308031DF22EF32E132FE4016408AB
:100DEA00A03E8600013087006408283E8400023055
:100DFA008500000881000130E40720306402031CEA
:100E0A00072F082FF42E66082100AC002000650881
:100E1A002100AB0001302000B800D02F3808031998
:100E2A00172F182F252F660821002C06031D212FA6
:100E3A002000650821002B060319242F252F292FAE
:100E4A0005302000E200D02F2000E4016408C03EF3
:100E5A008600013087006408283E8400023085003D
:100E6A00000881000130E40720306402031C3E2F91
:100E7A003F2F2B2FB8016608F5006508F400A03053
:100E8A00F60083319A2386312000E200D02F26080B
:100E9A002000E30010306602003003196502031CCB
:100EAA00572F582FD32E1F306602E03003196502E0
:100EBA00031C602F612F622FD32E1F306505DD00C2
:100ECA0000306605DE005D085E04031D6D2F6E2F7F
:100EDA00E22E02306302031C732F742F752FE22E49
:100EEA0063082200A60020006608F5006508F400E1
:100EFA006308F6008A31D3228631D02F27082000D2
:100F0A00DD00DE015D08DE00DD015D082400260447
:100F1A002000E0005E08E1006608D4006508D300FE
:100F2A006108D6006008D500240028082000D700F0
:100F3A00240029082000D80082314D228631200061
:100F4A00E200D02F803139208631003A0319AE2FC2
:100F5A00AF2FB32F01302000B700D02F0730200069
:100F6A00E200D02F02302000E200D02F2400220815
:100F7A00013A03199B2E033A0319B22E013A0319B7
:100F8A00BE2E073A03194C2F013A0319832F033A4D
:100F9A000319A72FB72F200062082200A400080017
:100FAA002030840000308500293089313E21873184
:100FBA00A030840000308500363089313E218731E7
:100FCA002030840001308500403089313E2187314C
:100FDA00A030840001308500403089313E218731BC
:100FEA002030840002308500403089313E2187312B
:100FFA0020008231DE2A09340234293400340134D3
:10100A000134003480343234093404340034003476
:10101A0002340334003400340034093421341134E6
:10102A0001340034013422341B34003407340534CB
:10103A008134033440340034013407340534013434
:10104A000334403400340134283403345334003434
:10105A0077340034613400346E340034533400344D
:10106A006F3400346E340034673400342034003472
:10107A0055340034533400344234003420340034BC
:10108A00553400347034003464340034613400342C
:10109A00743400346534003406340034FF340934BF
:1010AA000134A1340134153400342634FF340034B9
:1010BA0075340834953440340934013481340234A7
:1010CA00953440340934013491340234C034123432
:1010DA0003345334003477340034613400346E34CA
:1010EA000034533400346F3400346E3400346734BF
:1010FA000034123401340034023400340034003431
:10110A000834D83404345F340034003401340134F0
:10111A00023400340134963488346C3488342934E7
:0E112A00883404340334093404340034883427
:10127C00640080010131890B3F2900345530230073
:10128C009600AA30960095140000000008003D005E
:10129C008E0192012000BB018B130B133F00ED015B
:1012AC00903100288931080024002508F200F30150
:1012BC007208F300F20172082404F0007308F100C4
:1012CC00080023008C018D018E0121009801FC3057
:1012DC009900903027009B002000B801B701BA019B
:1012EC00B90181313221893108001E30F6000130FC
:1012FC008A3116228931F0012030F1000230F200DF
:10130C004030F30001308B31862389312000BA0044
:10131C00B9010800700823009100710892001513A0
:10132C00151400000000FF3023001305F2003F30BD
:10133C001405F3007208F0007308F1000800210096
:10134C000D160E1524000D1621009513F00120002A
:10135C000D1AB129B229B8290E19B529B629B829FF
:10136C000130F000700808002100AD01743020003D
:10137C00C9000030CA000030CB00CC000030CD00DA
:10138C00CE008931FE2189313D008E101211FB30C7
:10139C00900508007008F500DA29750886008701A9
:1013AC00710881000130F5070130F3020030F43B85
:1013BC00730A031DE529740A031DE529E629D329BF
:1013CC0008003D001215EF3090058E1401302100FD
:1013DC00AD0075302000C9000030CA000030CB00D1
:1013EC00CC000030CD00CE008931FE2189310800BF
:1013FC00072A89317B218931152A803105208931D1
:10140C00152A20004A08003A03190D2A152A490802
:10141C00013A0319FF29023A0319032A152A080075
:10142C00F800761D1A2A1B2A202AF00178088B3125
:10143C0009238A31F61C232A242A2A2AF001F00ACD
:10144C0078088B3109238A317808983EF7007708A1
:10145C0086000E308700760881000800F0017008C5
:10146C00203E86000130870081010130F0074030BA
:10147C007002031C422A432A352A53302200A00052
:10148C000130A1002400220880382200A200240090
:10149C0023082200A30008003D00181C562A572AD6
:1014AC00712A200036088600870180300106031D52
:1014BC00602A612A6F2A250886008701843001067C
:1014CC00031D692A6A2A6F2A3608860087018C3028
:1014DC0081003D001810DF30900508007208F30001
:1014EC00F4017308F400F3017308F0067408F106B4
:1014FC00F601F11B822A832A882A7035F000710DBF
:10150C00F100942A7108F4007008F300F335F40D1F
:10151C0021307306F00010307406F1000130F6072C
:10152C0008307602031C9B2A9C2A7F2A0800200084
:10153C00B401AD01AA01A901AF01B30125088600D0
:10154C0087017F3081050430A506250886008701B8
:10155C007F3081050430A5063508860087017F3071
:10156C008105A201A301A4012100A201A301A401F0
:10157C008E31AC268A3103302000C9000030CA00FD
:10158C000030CB00CC000030CD00CE008931FE21E4
:10159C008A318031B3208A3108007608F700F801CF
:1015AC00F70EF80EF030F80577080F39F804F03024
:1015BC00F7057708F4077808F53DFB017B087407FD
:1015CC00F00075080318750AF100893190218A31F1
:1015DC007108FA007008F9007B35283E860001304E
:1015EC008700790881007B35293E86000130870011
:1015FC007A0881000130FB0710307B02031C072B9B
:10160C00082BE42A0800F400AE30F5007008F10055
:10161C000130F135890B0F2B7408F2000230F235D2
:10162C00890B152B72087107F3000230F335890B07
:10163C001C2B7308F5077508860087018113700849
:10164C00031D292B2A2B312B7408273E860087017A
:10165C0075088100372B7408253E860087017508B4
:10166C00810075088600870101137508043E860009
:10167C00870101170800FF302000CD00FF30CE009D
:10168C000030CB001030CC00772B4C08F1004B080D
:10169C00F000893190218B3171082000CA0070084C
:1016AC00C9004E08F1004D08F0004908F2008A31DB
:1016BC0074228B3171082000CE007008CD004E08CA
:1016CC00F1004D08F0004A08F2008A3174228B3187
:1016DC0071082000CE007008CD000130CB0700301F
:1016EC00CC3D4C087802031D7D2B4B087702031868
:1016FC00802B812B4B2B4E08F8004D08F70008006F
:10170C00F600700803198B2B8C2B932B7608253E37
:10171C00860087010108F700992B7608273E860082
:10172C0087010108F7007708031D9D2B9E2BA02B2A
:10173C000030D02BFF307105F4007F307205F500BE
:10174C007708023E860087017408C03F7508C13FC8
:10175C00770A860087017308810077088600870165
:10176C004030810577088600870188308104700835
:10177C000319C12BC22BC92B7608253E8600870185
:10178C0004308106CF2B7608273E86008701043073
:10179C008106770808002100CE01CF01062CA21784
:1017AC003103031DDA2BDB2B132C2100CE14132C4D
:1017BC00A217132CA217C01BE42BE52BED2B400812
:1017CC000F39273E860087010108F000F42B4008F2
:1017DC000F39253E860087010108F000700886004D
:1017EC008701811FFA2BFB2B132C700886008701B5
:1017FC00011D012C022C132C01302100CE00132CC6
:10180C0020003C081F39003A0319D52B013A031963
:10181C00DE2B033A0319E02B132C2000A21F172CEC
:10182C00182C1F2CCE30A0000030A1002214023046
:10183C00A30008002000AA01A90102303306031DF1
:10184C00282C292C462C350A86008701083081006B
:10185C00CE30F1000030F200FF307105F3007F3024
:10186C007205F4003508023E860087017308C03FFC
:10187C007408C13F350886008701C83081006F2C81
:10188C0024084302031D4C2C2308420203184F2C3E
:10189C00502C542C4308A4004208A3008C31C224C1
:1018AC008C31CE30F1000030F200FF307105F300C6
:1018BC007F307205F40020002508023E8600870167
:1018CC007308C03F7408C13F250886008701C830E3
:1018DC008100080010307502003003197402031CDB
:1018EC00782C792C822C1F307502E130031974028C
:1018FC00031C812C822C842C0330C12C1F307405CA
:10190C00F60000307505F7007608770403198F2C64
:10191C00902C922C0430C12C0B0D0B0D0139FA00BC
:10192C008B1374082300910075089200151315167B
:10193C001515893144218C312300151115127A0C9F
:10194C00031C8B1303188B177508F1007408F00037
:10195C00893190218C31700A3F30031971060319BB
:10196C00B82CB92CBE2C0630F8000030F900C02C75
:10197C00F801F901780808000830F0000030200068
:10198C0024020830031923020318CD2CCE2CDF2C93
:10199C002308F0003408031DD42CD52CD82C01308E
:1019AC00B400DF2C3403031DDC2CDD2CDF2C0230C7
:1019BC00B40070082302A3000030243BA400250AC5
:1019CC008600870170088100CE30B2002218EF2CFF
:1019DC00F02C192D022D3208860087012008840076
:1019EC0021088500000881000130A0070030A13DCE
:1019FC000130B2070130F0027008031D062D072DCF
:101A0C00F12C1E2D32088600870120088400210845
:101A1C008500000881000130A0070030A13D013095
:101A2C00B2070130F0027008031D1D2D1E2D082D6C
:101A3C00080020002C08031D242D252D7E2D01309F
:101A4C00AC002B08031D2B2D2C2D7E2D0130AB0053
:101A5C0002303306031D332D342D3E2D250A86000E
:101A6C0087018101250886008701C83081007E2D01
:101A7C003303031D422D432D7E2DAF01360A860004
:101A8C008701083081003C30F0000030F100FF305D
:101A9C007005F2007F307105F3003608023E8600B7
:101AAC0087017208C03F7308C13F36088600870162
:101ABC00843081000130AF00350A86008701083080
:101ACC0081003C30F0000030F100FF307005F20076
:101ADC007F307105F3003508023E860087017208DD
:101AEC00C03F7308C13F35088600870180308100F4
:101AFC0008002000250886008701010E890C890C3E
:101B0C000139F5000430A50608303B06031D8F2D66
:101B1C00902D9F2D3E083D00960016080319972D19
:101B2C00982D9C2D10302000BB009F2D04302000E0
:101B3C00BB003303031DA32DA42DD72DCE30F100F4
:101B4C000030F200FF307105F3007F307205F400B5
:101B5C002508023E860087017308C03F7408C13F08
:101B6C008C31C2248D31023020003406031DBF2D70
:101B7C00C02DC62D25088600870184308100DF2DFD
:101B8C007508031DCA2DCB2DD12D25088600870184
:101B9C00C8308100DF2D2508860087018830810040
:101BAC00DF2D2100A21FDB2DDC2DDD2DA21320004B
:101BBC00B3010800803020003C06031DE62DE72D04
:101BCC00452EC030A2003A2E7E30A0008830A100F5
:101BDC001230A3000030A400452E3E08F000F101A5
:101BEC00F035F10D9A30700784000830713D803863
:101BFC008500003FA000013FA100023020078400B7
:101C0C0021080318013E85000008A30003302007BB
:101C1C00840021080318013E85000008A400452E0D
:101C2C0003303E0203181B2E1C2E382E3E08F000EB
:101C3C00F101F035F10D9030700784000830713DE2
:101C4C0080388500003FA000013FA10020088400DF
:101C5C00210885000008F000F1017008A30071084C
:101C6C00A400452EA201452E3F08013A0319EA2D86
:101C7C00033A0319F32D013A0319162E382E0800D6
:101C8C002000A2179930F900FA01790886000E306D
:101C9C00870081010130F9070130FA077A0803192E
:101CAC00582E592E4B2EAE30F0000030F100F200C1
:101CBC002030F3000030F4008931D0218E313D000A
:101CCC000E17FB017B08A93E8600870181017B086A
:101CDC00A73E8600870181010130FB0702307B02A1
:101CEC00031C792E7A2E682E4730F0000030F1005C
:101CFC00F2000130F3000030F4008931D0218E3134
:101D0C003D000E13B6302000A500AE30B6003608EC
:101D1C00B5003E08C8004808031D952E962E992E36
:101D2C001030BB00AB2E0130C9000030CA00483067
:101D3C00CB000030CC000130CD000030CE0089311A
:101D4C00FE218E3120302000BB00080020003C0E0C
:101D5C00890C0339003A0319B42EB52EEF2E122F2D
:101D6C00A2170830BB00122F8D31E0258E31122FB7
:101D7C008E3146268E31122F4830A0000030A10043
:101D8C0022140130A300A217122F8B31D1238E31D4
:101D9C00122F843165248E31122F4008473EA0004B
:101DAC000030A100C62EA2174008473E86008701CE
:101DBC003E088100122F0230C9000030CA000030EA
:101DCC00CB00CC000030CD00CE008931FE218E310D
:101DDC00122F3D08003A0319CB2E013A0319CF2ECE
:101DEC00023A0319CF2E063A0319B62E033A0319F9
:101DFC00BA2E013A0319E12E0F3A0319C22E013AF9
:101E0C000319BE2E033A0319D32E013A0319D92E06
:101E1C00073A0319122F122F08002D302000AE00A4
:101E2C004608FD39031D1B2F1C2F7B2F4608CF00A6
:101E3C000130CF36890B1F2F4F083F39D0000230AD
:101E4C00D035890B262F5008AE3EB6003608B500AB
:101E5C000430B506360886008701010C890C0F3951
:101E6C000D3A031D3A2F3B2F772FD30153083C3EDD
:101E7C00860087010030873D3608023E84008501CC
:101E8C00003FCF00013FD0004F0884005008850070
:101E9C00000881003608023E860087010130810768
:101EAC0041310318810A0130D30708305302031C57
:101EBC00602F612F3C2F3C30CF000030D000FF3022
:101ECC004F05D1007F305005D2003608023E860007
:101EDC0087015108C03F5208C13F8A319D228F3182
:101EEC00872F803109208F31872FFD304605CF0099
:101EFC0004304F06031D832F842F872F8D317F25B0
:101F0C008F31080020003C081F39013A03198F2F2C
:101F1C00902F912FFF2F40080319952F962F972F55
:101F2C00FF2F06303D06031D9C2F9D2FC22FB72F70
:101F3C004803031DA22FA32FC22F1230A0008830FC
:101F4C00A1000930A3000030A400C030A200C22FB1
:101F5C005130A0008830A1001B30A3000030A40039
:101F6C00AB2F3F08213A03199E2F033A0319AE2FCA
:101F7C00013A0319C22FC22F3C0E890C0339013AC6
:101F8C000319C92FCA2FEB2FFF2F4530A0000030AB
:101F9C00A1000130A3000030A400C130A200FF2F2B
:101FAC008030A2003F08C500FF2F4430A000003055
:101FBC00A1000130A3000030A4008130A200FF2F4B
:101FCC008030A2003E08C400FF2F3D08013A0319DF
:101FDC00FF2F033A0319CB2F013A0319DB2F0A3ACF
:101FEC000319FF2F033A0319D62F013A0319E62FD1
:101FFC00FF2F08009031022820009731ED2F0800A8
:10200C0008007008F5001128750886008701710812
:10201C0081000130F5070130F3020030F43B730A04
:10202C00031D1C28740A031D1C281D280A280800DF
:10203C00803020004B06031D242825288328C0301F
:10204C00A90078288F30A7009830A8001230AA0079
:10205C000030AB0083284D08F000F101F035F10D94
:10206C00B330700784001830713D80388500003F14
:10207C00A700013FA8000230270784002808031896
:10208C00013E85000008AA000330270784002808B9
:10209C000318013E85000008AB00832803304D0275
:1020AC00031859285A2876284D08F000F101F0350C
:1020BC00F10DA930700784001830713D803885000F
:1020CC00003FA700013FA8002708840028088500CE
:1020DC000008F000F1017008AA007108AB00832819
:1020EC00A90183284E08013A03192828033A031939
:1020FC003128013A03195428762808002000A91722
:10210C009930F900FA01790886000E3087008101B8
:10211C000130F9070130FA077A0803199628972835
:10212C008928B030F0000030F100F2002030F300CC
:10213C000030F4009031072090313D000E17FB0168
:10214C007B082E3E8600870181017B082C3E860091
:10215C00870181010130FB0702307B02031CB72889
:10216C00B828A6285830F0000030F100F2000130F9
:10217C00F3000030F4009031072090313D000E1335
:10218C00B8302000B000B030C4004408C3004D0883
:10219C00D9005908031DD328D428D7281030CA00D9
:1021AC00E9280130DA000030DB005930DC00003067
:1021BC00DD000130DE000030DF009D31F325903171
:1021CC0020302000CA00080020004B0E890C033977
:1021DC00003A0319F228F3282D295029A9170830A1
:1021EC00CA00502990311E20903150299031842002
:1021FC00903150295930A7000030A8002914013023
:10220C00AA00A91750299E31842690315029943167
:10221C005124903150294F08583EA7000030A80097
:10222C000429A9174F08583E860087014D088100E4
:10223C0050290230DA000030DB000030DC00DD0019
:10224C000030DE00DF009D31F325903150294C0821
:10225C00003A03190929013A03190D29023A031905
:10226C000D29063A0319F428033A0319F828013A00
:10227C0003191F290F3A03190029013A0319FC28E5
:10228C00033A03191129013A03191729073A0319BB
:10229C005029502908002000300886008701010EC3
:1022AC00890C890C0139F6000430B00608304A0656
:1022BC00031D6129622971294D083D0096001608FD
:1022CC00031969296A296E2910302000CA00712966
:1022DC0004302000CA004103031D75297629A92961
:1022EC00D030F2000030F300FF307205F4007F3084
:1022FC007305F5003008023E860087017408C03F64
:10230C007508C13F9F3123279131023020004206CE
:10231C00031D912992299829300886008701843061
:10232C008100BF297608031D9C299D29A32930080B
:10233C0086008701C8308100BF29300886008701DC
:10234C0088308100BF29A21FAC29AD29BE292508E0
:10235C0026040319B229B329BC290530203E860076
:10236C008701413F8A00403F0A0091312000A213AF
:10237C00C10108002D302000BD005708FD39031D98
:10238C00C829C929282A5708E0000130E036890BF2
:10239C00CC2960083F39E1000230E135890BD329A3
:1023AC006108B03EC4004408C3000430C3064408AE
:1023BC0086008701010C890C0F390D3A031DE729A2
:1023CC00E829242AE40164084B3E8600870100308A
:1023DC00873D4408023E84008501003FE000013F38
:1023EC00E100600884006108850000088100440851
:1023FC00023E860087010130810741310318810AB2
:10240C000130E40708306402031C0D2A0E2AE92966
:10241C004B30E0000030E100FF306005E2007F301F
:10242C006105E3004408023E860087016208C03F54
:10243C006308C13F9D3186259131342A9D31562543
:10244C009131342AFD305705E00004306006031D3D
:10245C00302A312A342A913151219131080020003F
:10246C004B081F39013A03193C2A3D2A3E2AB02A4F
:10247C004F080319422A432A442AB02A06304C0634
:10248C00031D492A4A2A6F2A642A5903031D4F2A1D
:10249C00502A6F2A5330A7009830A8000930AA00A0
:1024AC000030AB00C030A9006F2A0030A700983074
:1024BC00A8004130AA000030AB00582A4E08213A3F
:1024CC0003194B2A033A03195B2A013A03196F2AA1
:1024DC006F2A4B0E890C0339013A0319762A772A95
:1024EC009C2AB02A9C3182249231B02A5630A70003
:1024FC000030A8000130AA000030AB00C130A900A8
:10250C00B02A8030A9004E08D600B02A5530A7005A
:10251C000030A8000130AA000030AB008130A900C7
:10252C00B02A8030A9004D08D500B02A4C08013AD9
:10253C000319B02A033A03197C2A013A03198C2A8D
:10254C000A3A0319782A033A0319872A013A03191C
:10255C00972AB02A08003D000E122000A91BB72AAA
:10256C00B82AEC2AA21FBB2ABC2ACA2A0230C100F4
:10257C003808031DC22AC32AC62A9E31D32692319B
:10258C002000BA01BB012C2B430A860087010830BE
:10259C0081004B30F5000030F600FF307505F70078
:1025AC007F307605F8004308023E860087017708E5
:1025BC00C03F7808C13F4308860087018C308100FA
:1025CC00300886008701843081002C2BCB1FEF2A2A
:1025DC00F02A062B0130C1003908031DF62AF72A10
:1025EC00FA2A9E31D32692312000BA01BB013C0855
:1025FC00031D012B022B2C2B9F31802792312C2B6E
:10260C000230C100430A86008701083081004B303C
:10261C00F5000030F600FF307505F7007F307605C9
:10262C00F8004308023E860087017708C03F78080F
:10263C00C13F43088600870184308100BA01BB0189
:10264C003C08031D2A2B2B2B2C2B022B08002100C2
:10265C0012113D009301900198019930F400F5019D
:10266C00740886000E30870081010130F4070130B8
:10267C00F50775080319432B442B362B16303D00F8
:10268C0091009F3097007B309200F6017608F000A5
:10269C000230F035890B4F2B7008B03E8600870155
:1026AC000030C03F0030C13FC23FC33F0130F6078E
:1026BC0008307602031C632B642B4C2B3D000E1749
:1026CC0096010E120E13712BF73090052000A90104
:1026DC00A201A301A4013D009019752B762B6A2B46
:1026EC0001302000BB000130BA00B901B801C801AB
:1026FC00F6017608303E8600870181017608323E6D
:10270C0086008701810176082E3E860087018101B3
:10271C0076082C3E8600870181010130F6070230D5
:10272C007602031C9A2B9B2B7F2BB8302000B00019
:10273C0016303D0098004B30F0000030F100FF30B7
:10274C007005F2007F307105F30072082100B200B1
:10275C007308B3000830B1008430B0002000D901F8
:10276C00CA0108002000440A860087010108F9000C
:10277C007908F400F50175082402031DC72B7408B1
:10278C0023020318CA2BCB2BCD2B2308F900790875
:10279C002302A3000030243BA400F801E52B200801
:1027AC008600210887007808D03E84008501000847
:1027BC0081000130A0070030A13D0130F8077908F5
:1027CC007802031CEA2BEB2BD52B230824040319CA
:1027DC00F02BF12B1B2C430A86008701083081005B
:1027EC00D030F4000030F500FF307405F6007F3077
:1027FC007505F7004308023E860087017608C03F46
:10280C007708C13F440886008701011B0E2C0F2C52
:10281C00152C430886008701C8308100502C4308D2
:10282C008600870188308100502C430A860087017E
:10283C00083081004B30F4000030F500FF30740597
:10284C00F6007F307505F7004308023E86008701CD
:10285C007608C03F7708C13F430886008701843063
:10286C0081002508260403193C2C3D2C462C0530F0
:10287C00203E86008701413F8A00403F0A00943188
:10288C002000A2133C08031D4C2C4D2C502C9F31C6
:10289C0080279331080020004D03031D562C572C24
:1028AC00692C4B081F39003A031D5D2C5E2C692CDA
:1028BC00A91703304C06031D642C652C682C0130C1
:1028CC00C900692CC9014D08031D6D2C6E2C542DAB
:1028DC004B081F39023A031D742C752C542D4F08CC
:1028EC000F39003A03197B2C7C2C542D4F080F39CF
:1028FC00F900023079020318842C852C542D2030D9
:10290C004A06031D8A2C8B2C542DA917CF1B8F2CF8
:10291C00902C9F2C4F080F39323E860087010108FE
:10292C00FC004F080F392C3E860087010108FB0084
:10293C00AD2C4F080F39303E860087010108FC0092
:10294C004F080F392E3E860087010108FB007B18CB
:10295C00B02CB12CB42CFB30FC05B52C7C15CF1B4A
:10296C00B82CB92CC12C4F080F39323E8600870188
:10297C007C088100C82C4F080F39303E8600870137
:10298C007C08810003304C06031DCD2CCE2CEC2C86
:10299C007C0886008701811FD42CD52CE62CCF1BFC
:1029AC00D82CD92CE02C4F080F392C3E86008701EF
:1029BC008114E62C4F080F392E3E860087018114B6
:1029CC007C088600870184308104542D0430FC0679
:1029DC007C0886008701811FF42CF52C0D2D7C08BA
:1029EC00860087017F3081057C08860087010117EE
:1029FC000530DA000030DB007C08DC00DD01013042
:102A0C00DE000030DF009D31F3259431112D7C0860
:102A1C008600870101170430FC06FB18162D172DB4
:102A2C001E2D7C0886008701811F1D2D1E2D442D17
:102A3C002000CF1B222D232D2A2D4F080F392C3E81
:102A4C00860087018110302D4F080F392E3E8600ED
:102A5C00870181107C08860087013B308105053099
:102A6C00DA000030DB007C08DC00DD010130DE0028
:102A7C000030DF009D31F3259431492D7C08860010
:102A8C0087013B30810520004F080F39983EFA0032
:102A9C007A0886000E308700FE3081050800200081
:102AAC004A08031D5A2D5B2D6D2D3D008E019201A0
:102ABC00163091009F3097007B309200662D8E155A
:102ACC008E1D692D6A2D652D01302000CA004A0328
:102ADC00031D712D722D7E2D3D008E1A762D772DB6
:102AEC007E2D900192011214121602302000CA00A1
:102AFC003D00101D822D832D8C2D121D862D872DB2
:102B0C008C2DFB3090059C316D2495313D008E1C35
:102B1C00902D912D942D20001211682E101C972DA4
:102B2C00982DA52D121C9B2D9C2DA52D93312D235D
:102B3C00953104302000CA00FE303D009005101E77
:102B4C00A82DA92DB32D121EAC2DAD2DB32D9C315E
:102B5C0098249531EF303D009005101FB62DB72D00
:102B6C00DD2D121FBA2DBB2DCA2D73302000DA00BB
:102B7C000030DB000030DC00DD000130DE00003016
:102B8C00DF009D31F3259531BF303D0090052000CD
:102B9C003D080319D22DD32DD52D0130BD023D0892
:102BAC00031DD92DDA2DDD2D9F31802795313D0068
:102BBC00901EE12DE22DE92D921EE52DE62DE92D3D
:102BCC009D31082595313D00901CED2DEE2D032EE9
:102BDC00921CF12DF22D032EFF302000DA007F30F5
:102BEC00DB000030DC00DD000130DE000030DF00F7
:102BFC009D31F32595313D009301043020004A02AC
:102C0C000318092E0A2E0C2E1211682E3D00921D4F
:102C1C00102E112E662E2000E6013D00901D172E61
:102C2C00182E662E0F082000D700570CE500E50C77
:102C3C00650C0F39BF00F7303D0090052000571987
:102C4C00282E292E382E3F082C3E8600870101089D
:102C5C000139E5000130E50601086506FE39650617
:102C6C008100462E3F082E3E86008701010801395F
:102C7C00E5000130E50601086506FE3965068100B0
:102C8C003F08031D4A2E4B2E4F2E9131C0219531FA
:102C9C005D2E7230DA000030DB005730DC00003083
:102CAC00DD000030DE00DF009D31F3259531013071
:102CBC002000E60704306602031C652E662E132ED8
:102CCC0020001211080008302000EB004608031DFC
:102CDC00702E712E722EEC2FC60103108E1D031454
:102CEC000030093DDA0003108E1F03140030093D3B
:102CFC00DB0003100E1F03140030093DDC00031031
:102D0C008D1F03140030093DDD0003100E1C03144D
:102D1C000030093DDE0003108E1C03140030093D09
:102D2C00DF0003108D1E03140030093DE00003107A
:102D3C000D1F03140030093DE10003108E1E031417
:102D4C000030093DE20003100C1E03140030093D55
:102D5C00E30003100D1E03140030093DE4000310C2
:102D6C000E1E03140030093DE50003100E1D031464
:102D7C000030093DE600EE016E085A3E86008701E0
:102D8C0001080319CA2ECB2EF42E6E08A03E860025
:102D9C008701053001020318D42ED52EDB2E6E08C8
:102DAC00A03E86008701013081076E08A03E860098
:102DBC00870105300106031DE42EE52E1C2F013082
:102DCC00F8000030F9006E0AED2EF835F90D890B7C
:102DDC00EB2E7808D3047908D4041C2F6E08A03E7F
:102DEC008600870101080319FC2EFD2E032F6E08A7
:102DFC00A03E86008701013081026E08A03E86004D
:102E0C0087010108031D0B2F0C2F1C2F0130F8001C
:102E1C000030F9006E0A142FF835F90D890B122FBA
:102E2C00F809F9097808D3057908D4050130EE07BB
:102E3C000D306E02031C232F242FC22E47080319BA
:102E4C00282F292F362F470886008701010D010DE9
:102E5C000139F800F9017808E7007908E800382F03
:102E6C00E701E8016708680403193D2F3E2F3F2F47
:102E7C00EC2F5408F9005308F8000430F936F80C1C
:102E8C00890B442F78082100E00020005408F90039
:102E9C005308F800790E0F39F800F9017808013958
:102EAC002100E100200053185C2F5E2F01305F2FB2
:102EBC000030E900D318632F652F0130662F0030E6
:102ECC00EC0053196A2F6C2F01306D2F0030EA0083
:102EDC00D319712F732F0130742F0030ED00690856
:102EEC000319792F7A2F9B2F6A08031D7E2F7F2FB2
:102EFC009B2F6C080319832F842F8C2F6D08031DB7
:102F0C00882F892F8C2F0130EB00DB2F6D080319D4
:102F1C00902F912F992F6C08031D952F962F992F79
:102F2C000730EB00DB2FEB01DB2F6A0803199F2F17
:102F3C00A02FC22F6908031DA42FA52FC22F6C0828
:102F4C000319A92FAA2FB22F6D08031DAE2FAF2F77
:102F5C00B22F0330EB00DB2F6D080319B62FB72F00
:102F6C00BF2F6C08031DBB2FBC2FBF2F0530EB00F0
:102F7C00DB2F0430EB00DB2F6C080319C62FC72F97
:102F8C00CF2F6D08031DCB2FCC2FCF2F0230EB0092
:102F9C00DB2F6D080319D32FD42FDB2F6C08031DE7
:102FAC00D82FD92FDB2F0630EB006B082100E20065
:102FBC00F001F00AE030F1000030F2000330F300D1
:102FCC0001309E31392696312000C7000800203090
:102FDC008400003085003A309C3124249731A03095
:102FEC0084000030850043309C312424973120002C
:102FFC009C313D2C0534013409340534A1340134A1
:10300C0005340934193401342934093415340034A5
:10301C002534013475340134953409348134023447
:10302C007534013495340734813403340534013458
:10303C0009343934153400342534073475340434E8
:10304C00953401348134423475340434953401346C
:10305C008134033406340034FF340934013415341C
:10306C0000342634FF340034753408349534083475
:10307C00B1340234C0340934023422340034013403
:10308C0001340034803432340934043400340034D4
:10309C000134033400340034003409342134113445
:1030AC000134003401342234413400340734053403
:1030BC00813403340834003401341A340334533467
:1030CC00003477340034613400346E3400345334BB
:1030DC0000346F3400346E340034673400342034E0
:1030EC000034553400345334003442340034123438
:1030FC0003345334003477340034613400346E3488
:10310C000034533400346F3400346E34003467347C
:10311C0000341234013400340234003400340034EE
:10312C000834D83404345E340034013400340134AF
:10313C000234003401345334533455345034013494
:10314C0042344C34A534AF3498347D3498346334E1
:0E315C00983404340334093404344134983474
:10383C0008000800923135229C3108006400800198
:10384C000131890B252C00341A30F60001309C31E3
:10385C00C9249C31080001302000C600023045020A
:10386C00031C392C3A2C3C2C0130C50208009C312D
:10387C0049249C31953155259C319C31AE249C3189
:10388C00402C9031022823008C018D018E012100E7
:10389C009801FC309900903027009B009D312A251F
:1038AC009C3193312D239C310800200036083704BD
:1038BC00031D612C622C662C1030B6002730B7002B
:1038CC000130B6020030B73B3D000E080800200066
:1038DC00C8017430DA000030DB000030DC00DD00A1
:1038EC000030DE00DF009D31F3259C313D008E1051
:1038FC001211FB30900508000830200051065204CC
:10390C00031D892C8A2C972CD830A0000030A100E4
:10391C000830A3000030A400E730A5001C30A6003E
:10392C00A21708003D001215EF3090058E140130DF
:10393C002000C8007530DA000030DB000030DC00FD
:10394C00DD000030DE00DF009D31F3259C310800E6
:10395C009C315B249C3120004503031DB62CB72CF5
:10396C00B82C0100203020004A02031CBE2CBF2CB6
:10397C00C82C3D008E1CC32CC42CC52CC82C9631D5
:10398C0069269C310800F800761DCD2CCE2CD32C4A
:10399C00F00178089D31BB259C31F61CD62CD72C18
:1039AC00DD2CF001F00A78089D31BB259C3178089C
:1039BC00983EF700770886000E3087007608810065
:1039CC000800F1017108A13E840098300318013EF3
:1039DC0085000008F0007108D83E860087010108B8
:1039EC0070060319FA2CFB2CFC2C072D0130F10767
:1039FC0008307102031C032D042DE82C1930200013
:103A0C00C50008003D00181C0C2D0D2D272D200085
:103A1C0044088600870180300106031D162D172DE2
:103A2C00252D30088600870184300106031D1F2DCB
:103A3C00202D252D4408860087018C3081003D0007
:103A4C001810DF309005080001302000EF00013025
:103A5C002100E3000C16F0308D04FF308E002400A2
:103A6C000C16F0308D0421009513F0017008A03E67
:103A7C008600870181010130F0070D307002031CB4
:103A8C00482D492D3C2D2000D301D401C601C50180
:103A9C002100E001E1010830E2002000C70108002C
:103AAC00023020004106031D5C2D5D2D612D9331EC
:103ABC00B8239D31852DC1013E08031D662D672D50
:103ACC00842D430A86008701083081004B30FA00B0
:103ADC000030FB00FF307A05FC007F307B05FD00D9
:103AEC004308023E860087017C08C03F7D08C13F29
:103AFC004308860087018C308100852DBE010800AB
:103B0C002000C201BC01B901B801BE01C1013008DD
:103B1C00860087017F3081050430B00630088600AE
:103B2C0087017F3081050430B00643088600870189
:103B3C007F308105A901AA01AB01A201A301A40157
:103B4C009031EA209D3103302000DA000030DB0098
:103B5C000030DC00DD000030DE00DF009D31F3259D
:103B6C009D319231B1229D310800F400B030F50046
:103B7C007008F1000130F135890BC12D7408F20089
:103B8C000230F235890BC72D72087107F300023031
:103B9C00F335890BCE2D7308F50775088600870160
:103BAC0081137008031DDB2DDC2DE32D7408323ED0
:103BBC008600870175088100E92D7408303E860067
:103BCC008701750881007508860087010113750847
:103BDC00043E8600870101170800102E9C31312409
:103BEC009D31382E903105209D31382E9031062094
:103BFC009D31382E9C312A249D31382E9C311F2426
:103C0C009D31382E9C3120249D31382E9C311E2420
:103C1C009D31382E20005B08003A0319192E7F3A8B
:103C2C000319332E382E5A08013A0319002E033A81
:103C3C000319042E013A0319082E063A0319382EDB
:103C4C00773A0319382E013A0319F42D073A031960
:103C5C00FC2D013A0319F82D382E5A08FF3A031996
:103C6C000C2E382E0800F600700803193E2E3F2E3D
:103C7C00462E7608303E860087010108F7004C2E50
:103C8C007608323E860087010108F7007708031D8D
:103C9C00502E512E532E0030832EFF307105F40020
:103CAC007F307205F5007708023E860087017408A4
:103CBC00C03F7508C13F770A8600870173088100F1
:103CCC0077088600870140308105770886008701D8
:103CDC008830810470080319742E752E7C2E76089A
:103CEC00303E8600870104308106822E7608323EF3
:103CFC008600870104308106770808002100D00176
:103D0C00D101B92EA9174903031D8D2E8E2EC62E57
:103D1C002100D014C62EA917C62EA917CF1B972E7B
:103D2C00982EA02E4F080F39323E860087010108CD
:103D3C00F000A72E4F080F39303E8600870101088E
:103D4C00F000700886008701811FAD2EAE2EC62EA6
:103D5C00700886008701011DB42EB52EC62E0130C9
:103D6C002100D000C62E20004B081F39003A031941
:103D7C00882E013A0319912E033A0319932EC62E5D
:103D8C002000A91FCA2ECB2ED22ED030A700003077
:103D9C00A80029140230AA0008002000B901B801BB
:103DAC0002304106031DDB2EDC2EF92E430A860061
:103DBC00870108308100D030F1000030F200FF3074
:103DCC007105F3007F307205F4004308023E860053
:103DDC0087017308C03F7408C13F43088600870100
:103DEC00C8308100222F2B085202031DFF2E2A08F7
:103DFC0051020318022F032F072F5208AB00510852
:103E0C00AA009F3123279E31D030F1000030F20000
:103E1C00FF307105F3007F307205F400200030088C
:103E2C00023E860087017308C03F7408C13F30080A
:103E3C0086008701C830810008000830F00000308F
:103E4C0020002B02083003192A0203182E2F2F2FC3
:103E5C00402F2A08F0004208031D352F362F392F2A
:103E6C000130C200402F4203031D3D2F3E2F402F37
:103E7C000230C20070082A02AA0000302B3BAB00B3
:103E8C00300A8600870170088100D030C0002918E4
:103E9C00502F512F7A2F632F400886008701270857
:103EAC00840028088500000881000130A707003035
:103EBC00A83D0130C0070130F0027008031D672FC8
:103ECC00682F522F7F2F4008860087012708840017
:103EDC0028088500000881000130A7070030A83DA4
:103EEC000130C0070130F0027008031D7E2F7F2FB8
:103EFC00692F080020003B08031D852F862FDF2F1C
:103F0C000130BB003A08031D8C2F8D2FDF2F0130A1
:103F1C00BA0002304106031D942F952F9F2F300AB3
:103F2C00860087018101300886008701C830810036
:103F3C00DF2F4103031DA32FA42FDF2FBE01440A43
:103F4C0086008701083081004B30F0000030F10012
:103F5C00FF307005F2007F307105F3004408023E1B
:103F6C00860087017208C03F7308C13F4408860071
:103F7C008701843081000130BE00430A860087012E
:103F8C00083081004B30F0000030F100FF3070053C
:103F9C00F2007F307105F3004308023E8600870172
:103FAC007208C03F7308C13F430886008701803008
:103FBC008100080053295A15DF1F310055000100FC
:103FCC000000FF3FFF3FFF3FFF3FFF3FFF3FFF3F33
:103FDC00FF3FFF3FFF3FFF3FFF3FFF3FFF3FFF3FE5
:103FEC00FF3FFF3FFF3FFF3FFF3FFF3FFF3FFF3FD5
:043FFC00FF3FFF3F45
:020000040001F9
:04000E00840FCD1F6F
:00000001FF
